{"contracts/Bank.sol":{"Bank":{"abi":[{"anonymous":false,"inputs":[{"indexed":true,"internalType":"address","name":"from","type":"address"},{"indexed":true,"internalType":"uint256","name":"amountSent","type":"uint256"}],"name":"Deposit","type":"event"},{"anonymous":false,"inputs":[{"indexed":false,"internalType":"address","name":"from","type":"address"},{"indexed":false,"internalType":"uint256","name":"withrawnAmount","type":"uint256"},{"indexed":false,"internalType":"uint256","name":"amountLeft","type":"uint256"}],"name":"Withdraw","type":"event"},{"inputs":[],"name":"deposit","outputs":[],"stateMutability":"payable","type":"function"},{"inputs":[],"name":"getCounter","outputs":[{"internalType":"uint256","name":"","type":"uint256"}],"stateMutability":"view","type":"function"},{"inputs":[{"internalType":"address","name":"_user","type":"address"}],"name":"getCurrentUSerBalance","outputs":[{"internalType":"uint256","name":"","type":"uint256"}],"stateMutability":"view","type":"function"},{"inputs":[{"internalType":"address","name":"user","type":"address"}],"name":"userBalance","outputs":[{"internalType":"uint256","name":"balance","type":"uint256"}],"stateMutability":"view","type":"function"},{"inputs":[{"internalType":"uint256","name":"amount","type":"uint256"}],"name":"withdraw","outputs":[],"stateMutability":"payable","type":"function"}],"evm":{"bytecode":{"linkReferences":{},"object":"608060405234801561001057600080fd5b50610926806100206000396000f3fe60806040526004361061004a5760003560e01c80630103c92b1461004f5780632e1a7d4d1461008c5780638ada066e146100a8578063d0e30db0146100d3578063f45606f3146100dd575b600080fd5b34801561005b57600080fd5b506100766004803603810190610071919061064e565b61011a565b6040516100839190610694565b60405180910390f35b6100a660048036038101906100a191906106db565b610132565b005b3480156100b457600080fd5b506100bd61033b565b6040516100ca9190610694565b60405180910390f35b6100db610381565b005b3480156100e957600080fd5b5061010460048036038101906100ff919061064e565b610563565b6040516101119190610694565b60405180910390f35b60016020528060005260406000206000915090505481565b610146673b5805fc8549865060c01b6105e8565b61015a675db3a67b8621d7fa60c01b6105e8565b80600160003373ffffffffffffffffffffffffffffffffffffffff1673ffffffffffffffffffffffffffffffffffffffff16815260200190815260200160002060008282546101a99190610737565b925050819055506101c467abe8220419a7e14d60c01b6105e8565b6101d86751ba68c1e285cfef60c01b6105e8565b60003373ffffffffffffffffffffffffffffffffffffffff16826040516101fe9061079c565b60006040518083038185875af1925050503d806000811461023b576040519150601f19603f3d011682016040523d82523d6000602084013e610240565b606091505b5050905061025867b711628cbd4cb1a560c01b6105e8565b61026c67bd3521e72ce0f16d60c01b6105e8565b61028067dd762a621703f8ec60c01b6105e8565b806102c0576040517f08c379a00000000000000000000000000000000000000000000000000000000081526004016102b79061080e565b60405180910390fd5b6102d46799bf16e305609cd460c01b6105e8565b6102e86779fb832d8a8ad2b760c01b6105e8565b6102fc678c01635ff888ee0660c01b6105e8565b7ff279e6a1f5e320cca91135676d9cb6e44ca8a08c0b88342bcdb1144f6511b56833834760405161032f9392919061083d565b60405180910390a15050565b600061035167c65891a4a79f364460c01b6105e8565b61036567eb38d087bf0ffd1260c01b6105e8565b61037967f0b928133516844d60c01b6105e8565b600054905090565b6103956740b8d6cc7352691360c01b6105e8565b6103a96760bbf08d843e5cab60c01b6105e8565b6103bd67f431160e36759ee560c01b6105e8565b6000600160003373ffffffffffffffffffffffffffffffffffffffff1673ffffffffffffffffffffffffffffffffffffffff168152602001908152602001600020549050610415673c2adbe46f3a1e4660c01b6105e8565b6104296740cc84e7a162101160c01b6105e8565b60008103610475576104456753a368584cf9152160c01b6105e8565b61045967403a95c503b36c2e60c01b6105e8565b60008081548092919061046b90610874565b919050555061048a565b6104896771e6082955efd27e60c01b6105e8565b5b61049e67e77b4bf62872024a60c01b6105e8565b34600160003373ffffffffffffffffffffffffffffffffffffffff1673ffffffffffffffffffffffffffffffffffffffff16815260200190815260200160002060008282546104ed91906108bc565b9250508190555061050867d2fd9d3959a741bc60c01b6105e8565b61051c6758c3ae8c9f7a6d3a60c01b6105e8565b343373ffffffffffffffffffffffffffffffffffffffff167fe1fffcc4923d04b559f4d29a8bfc6cda04eb5b0d3c460751c2402c5c5cc9109c60405160405180910390a350565b6000610579678bce2bfe4bf8141060c01b6105e8565b61058d67e587dd603f0875a660c01b6105e8565b6105a16720b5fe14f06667e760c01b6105e8565b600160008373ffffffffffffffffffffffffffffffffffffffff1673ffffffffffffffffffffffffffffffffffffffff168152602001908152602001600020549050919050565b50565b600080fd5b600073ffffffffffffffffffffffffffffffffffffffff82169050919050565b600061061b826105f0565b9050919050565b61062b81610610565b811461063657600080fd5b50565b60008135905061064881610622565b92915050565b600060208284031215610664576106636105eb565b5b600061067284828501610639565b91505092915050565b6000819050919050565b61068e8161067b565b82525050565b60006020820190506106a96000830184610685565b92915050565b6106b88161067b565b81146106c357600080fd5b50565b6000813590506106d5816106af565b92915050565b6000602082840312156106f1576106f06105eb565b5b60006106ff848285016106c6565b91505092915050565b7f4e487b7100000000000000000000000000000000000000000000000000000000600052601160045260246000fd5b60006107428261067b565b915061074d8361067b565b925082820390508181111561076557610764610708565b5b92915050565b600081905092915050565b50565b600061078660008361076b565b915061079182610776565b600082019050919050565b60006107a782610779565b9150819050919050565b600082825260208201905092915050565b7f747261696e73666572206661696c656400000000000000000000000000000000600082015250565b60006107f86010836107b1565b9150610803826107c2565b602082019050919050565b60006020820190508181036000830152610827816107eb565b9050919050565b61083781610610565b82525050565b6000606082019050610852600083018661082e565b61085f6020830185610685565b61086c6040830184610685565b949350505050565b600061087f8261067b565b91507fffffffffffffffffffffffffffffffffffffffffffffffffffffffffffffffff82036108b1576108b0610708565b5b600182019050919050565b60006108c78261067b565b91506108d28361067b565b92508282019050808211156108ea576108e9610708565b5b9291505056fea2646970667358221220462a549eb7168344108318b1eac0646ba44fc9532229399d1d90d42510b1bbee64736f6c63430008180033","opcodes":"PUSH1 0x80 PUSH1 0x40 MSTORE CALLVALUE DUP1 ISZERO PUSH2 0x10 JUMPI PUSH1 0x0 DUP1 REVERT JUMPDEST POP PUSH2 0x926 DUP1 PUSH2 0x20 PUSH1 0x0 CODECOPY PUSH1 0x0 RETURN INVALID PUSH1 0x80 PUSH1 0x40 MSTORE PUSH1 0x4 CALLDATASIZE LT PUSH2 0x4A JUMPI PUSH1 0x0 CALLDATALOAD PUSH1 0xE0 SHR DUP1 PUSH4 0x103C92B EQ PUSH2 0x4F JUMPI DUP1 PUSH4 0x2E1A7D4D EQ PUSH2 0x8C JUMPI DUP1 PUSH4 0x8ADA066E EQ PUSH2 0xA8 JUMPI DUP1 PUSH4 0xD0E30DB0 EQ PUSH2 0xD3 JUMPI DUP1 PUSH4 0xF45606F3 EQ PUSH2 0xDD JUMPI JUMPDEST PUSH1 0x0 DUP1 REVERT JUMPDEST CALLVALUE DUP1 ISZERO PUSH2 0x5B JUMPI PUSH1 0x0 DUP1 REVERT JUMPDEST POP PUSH2 0x76 PUSH1 0x4 DUP1 CALLDATASIZE SUB DUP2 ADD SWAP1 PUSH2 0x71 SWAP2 SWAP1 PUSH2 0x64E JUMP JUMPDEST PUSH2 0x11A JUMP JUMPDEST PUSH1 0x40 MLOAD PUSH2 0x83 SWAP2 SWAP1 PUSH2 0x694 JUMP JUMPDEST PUSH1 0x40 MLOAD DUP1 SWAP2 SUB SWAP1 RETURN JUMPDEST PUSH2 0xA6 PUSH1 0x4 DUP1 CALLDATASIZE SUB DUP2 ADD SWAP1 PUSH2 0xA1 SWAP2 SWAP1 PUSH2 0x6DB JUMP JUMPDEST PUSH2 0x132 JUMP JUMPDEST STOP JUMPDEST CALLVALUE DUP1 ISZERO PUSH2 0xB4 JUMPI PUSH1 0x0 DUP1 REVERT JUMPDEST POP PUSH2 0xBD PUSH2 0x33B JUMP JUMPDEST PUSH1 0x40 MLOAD PUSH2 0xCA SWAP2 SWAP1 PUSH2 0x694 JUMP JUMPDEST PUSH1 0x40 MLOAD DUP1 SWAP2 SUB SWAP1 RETURN JUMPDEST PUSH2 0xDB PUSH2 0x381 JUMP JUMPDEST STOP JUMPDEST CALLVALUE DUP1 ISZERO PUSH2 0xE9 JUMPI PUSH1 0x0 DUP1 REVERT JUMPDEST POP PUSH2 0x104 PUSH1 0x4 DUP1 CALLDATASIZE SUB DUP2 ADD SWAP1 PUSH2 0xFF SWAP2 SWAP1 PUSH2 0x64E JUMP JUMPDEST PUSH2 0x563 JUMP JUMPDEST PUSH1 0x40 MLOAD PUSH2 0x111 SWAP2 SWAP1 PUSH2 0x694 JUMP JUMPDEST PUSH1 0x40 MLOAD DUP1 SWAP2 SUB SWAP1 RETURN JUMPDEST PUSH1 0x1 PUSH1 0x20 MSTORE DUP1 PUSH1 0x0 MSTORE PUSH1 0x40 PUSH1 0x0 KECCAK256 PUSH1 0x0 SWAP2 POP SWAP1 POP SLOAD DUP2 JUMP JUMPDEST PUSH2 0x146 PUSH8 0x3B5805FC85498650 PUSH1 0xC0 SHL PUSH2 0x5E8 JUMP JUMPDEST PUSH2 0x15A PUSH8 0x5DB3A67B8621D7FA PUSH1 0xC0 SHL PUSH2 0x5E8 JUMP JUMPDEST DUP1 PUSH1 0x1 PUSH1 0x0 CALLER PUSH20 0xFFFFFFFFFFFFFFFFFFFFFFFFFFFFFFFFFFFFFFFF AND PUSH20 0xFFFFFFFFFFFFFFFFFFFFFFFFFFFFFFFFFFFFFFFF AND DUP2 MSTORE PUSH1 0x20 ADD SWAP1 DUP2 MSTORE PUSH1 0x20 ADD PUSH1 0x0 KECCAK256 PUSH1 0x0 DUP3 DUP3 SLOAD PUSH2 0x1A9 SWAP2 SWAP1 PUSH2 0x737 JUMP JUMPDEST SWAP3 POP POP DUP2 SWAP1 SSTORE POP PUSH2 0x1C4 PUSH8 0xABE8220419A7E14D PUSH1 0xC0 SHL PUSH2 0x5E8 JUMP JUMPDEST PUSH2 0x1D8 PUSH8 0x51BA68C1E285CFEF PUSH1 0xC0 SHL PUSH2 0x5E8 JUMP JUMPDEST PUSH1 0x0 CALLER PUSH20 0xFFFFFFFFFFFFFFFFFFFFFFFFFFFFFFFFFFFFFFFF AND DUP3 PUSH1 0x40 MLOAD PUSH2 0x1FE SWAP1 PUSH2 0x79C JUMP JUMPDEST PUSH1 0x0 PUSH1 0x40 MLOAD DUP1 DUP4 SUB DUP2 DUP6 DUP8 GAS CALL SWAP3 POP POP POP RETURNDATASIZE DUP1 PUSH1 0x0 DUP2 EQ PUSH2 0x23B JUMPI PUSH1 0x40 MLOAD SWAP2 POP PUSH1 0x1F NOT PUSH1 0x3F RETURNDATASIZE ADD AND DUP3 ADD PUSH1 0x40 MSTORE RETURNDATASIZE DUP3 MSTORE RETURNDATASIZE PUSH1 0x0 PUSH1 0x20 DUP5 ADD RETURNDATACOPY PUSH2 0x240 JUMP JUMPDEST PUSH1 0x60 SWAP2 POP JUMPDEST POP POP SWAP1 POP PUSH2 0x258 PUSH8 0xB711628CBD4CB1A5 PUSH1 0xC0 SHL PUSH2 0x5E8 JUMP JUMPDEST PUSH2 0x26C PUSH8 0xBD3521E72CE0F16D PUSH1 0xC0 SHL PUSH2 0x5E8 JUMP JUMPDEST PUSH2 0x280 PUSH8 0xDD762A621703F8EC PUSH1 0xC0 SHL PUSH2 0x5E8 JUMP JUMPDEST DUP1 PUSH2 0x2C0 JUMPI PUSH1 0x40 MLOAD PUSH32 0x8C379A000000000000000000000000000000000000000000000000000000000 DUP2 MSTORE PUSH1 0x4 ADD PUSH2 0x2B7 SWAP1 PUSH2 0x80E JUMP JUMPDEST PUSH1 0x40 MLOAD DUP1 SWAP2 SUB SWAP1 REVERT JUMPDEST PUSH2 0x2D4 PUSH8 0x99BF16E305609CD4 PUSH1 0xC0 SHL PUSH2 0x5E8 JUMP JUMPDEST PUSH2 0x2E8 PUSH8 0x79FB832D8A8AD2B7 PUSH1 0xC0 SHL PUSH2 0x5E8 JUMP JUMPDEST PUSH2 0x2FC PUSH8 0x8C01635FF888EE06 PUSH1 0xC0 SHL PUSH2 0x5E8 JUMP JUMPDEST PUSH32 0xF279E6A1F5E320CCA91135676D9CB6E44CA8A08C0B88342BCDB1144F6511B568 CALLER DUP4 SELFBALANCE PUSH1 0x40 MLOAD PUSH2 0x32F SWAP4 SWAP3 SWAP2 SWAP1 PUSH2 0x83D JUMP JUMPDEST PUSH1 0x40 MLOAD DUP1 SWAP2 SUB SWAP1 LOG1 POP POP JUMP JUMPDEST PUSH1 0x0 PUSH2 0x351 PUSH8 0xC65891A4A79F3644 PUSH1 0xC0 SHL PUSH2 0x5E8 JUMP JUMPDEST PUSH2 0x365 PUSH8 0xEB38D087BF0FFD12 PUSH1 0xC0 SHL PUSH2 0x5E8 JUMP JUMPDEST PUSH2 0x379 PUSH8 0xF0B928133516844D PUSH1 0xC0 SHL PUSH2 0x5E8 JUMP JUMPDEST PUSH1 0x0 SLOAD SWAP1 POP SWAP1 JUMP JUMPDEST PUSH2 0x395 PUSH8 0x40B8D6CC73526913 PUSH1 0xC0 SHL PUSH2 0x5E8 JUMP JUMPDEST PUSH2 0x3A9 PUSH8 0x60BBF08D843E5CAB PUSH1 0xC0 SHL PUSH2 0x5E8 JUMP JUMPDEST PUSH2 0x3BD PUSH8 0xF431160E36759EE5 PUSH1 0xC0 SHL PUSH2 0x5E8 JUMP JUMPDEST PUSH1 0x0 PUSH1 0x1 PUSH1 0x0 CALLER PUSH20 0xFFFFFFFFFFFFFFFFFFFFFFFFFFFFFFFFFFFFFFFF AND PUSH20 0xFFFFFFFFFFFFFFFFFFFFFFFFFFFFFFFFFFFFFFFF AND DUP2 MSTORE PUSH1 0x20 ADD SWAP1 DUP2 MSTORE PUSH1 0x20 ADD PUSH1 0x0 KECCAK256 SLOAD SWAP1 POP PUSH2 0x415 PUSH8 0x3C2ADBE46F3A1E46 PUSH1 0xC0 SHL PUSH2 0x5E8 JUMP JUMPDEST PUSH2 0x429 PUSH8 0x40CC84E7A1621011 PUSH1 0xC0 SHL PUSH2 0x5E8 JUMP JUMPDEST PUSH1 0x0 DUP2 SUB PUSH2 0x475 JUMPI PUSH2 0x445 PUSH8 0x53A368584CF91521 PUSH1 0xC0 SHL PUSH2 0x5E8 JUMP JUMPDEST PUSH2 0x459 PUSH8 0x403A95C503B36C2E PUSH1 0xC0 SHL PUSH2 0x5E8 JUMP JUMPDEST PUSH1 0x0 DUP1 DUP2 SLOAD DUP1 SWAP3 SWAP2 SWAP1 PUSH2 0x46B SWAP1 PUSH2 0x874 JUMP JUMPDEST SWAP2 SWAP1 POP SSTORE POP PUSH2 0x48A JUMP JUMPDEST PUSH2 0x489 PUSH8 0x71E6082955EFD27E PUSH1 0xC0 SHL PUSH2 0x5E8 JUMP JUMPDEST JUMPDEST PUSH2 0x49E PUSH8 0xE77B4BF62872024A PUSH1 0xC0 SHL PUSH2 0x5E8 JUMP JUMPDEST CALLVALUE PUSH1 0x1 PUSH1 0x0 CALLER PUSH20 0xFFFFFFFFFFFFFFFFFFFFFFFFFFFFFFFFFFFFFFFF AND PUSH20 0xFFFFFFFFFFFFFFFFFFFFFFFFFFFFFFFFFFFFFFFF AND DUP2 MSTORE PUSH1 0x20 ADD SWAP1 DUP2 MSTORE PUSH1 0x20 ADD PUSH1 0x0 KECCAK256 PUSH1 0x0 DUP3 DUP3 SLOAD PUSH2 0x4ED SWAP2 SWAP1 PUSH2 0x8BC JUMP JUMPDEST SWAP3 POP POP DUP2 SWAP1 SSTORE POP PUSH2 0x508 PUSH8 0xD2FD9D3959A741BC PUSH1 0xC0 SHL PUSH2 0x5E8 JUMP JUMPDEST PUSH2 0x51C PUSH8 0x58C3AE8C9F7A6D3A PUSH1 0xC0 SHL PUSH2 0x5E8 JUMP JUMPDEST CALLVALUE CALLER PUSH20 0xFFFFFFFFFFFFFFFFFFFFFFFFFFFFFFFFFFFFFFFF AND PUSH32 0xE1FFFCC4923D04B559F4D29A8BFC6CDA04EB5B0D3C460751C2402C5C5CC9109C PUSH1 0x40 MLOAD PUSH1 0x40 MLOAD DUP1 SWAP2 SUB SWAP1 LOG3 POP JUMP JUMPDEST PUSH1 0x0 PUSH2 0x579 PUSH8 0x8BCE2BFE4BF81410 PUSH1 0xC0 SHL PUSH2 0x5E8 JUMP JUMPDEST PUSH2 0x58D PUSH8 0xE587DD603F0875A6 PUSH1 0xC0 SHL PUSH2 0x5E8 JUMP JUMPDEST PUSH2 0x5A1 PUSH8 0x20B5FE14F06667E7 PUSH1 0xC0 SHL PUSH2 0x5E8 JUMP JUMPDEST PUSH1 0x1 PUSH1 0x0 DUP4 PUSH20 0xFFFFFFFFFFFFFFFFFFFFFFFFFFFFFFFFFFFFFFFF AND PUSH20 0xFFFFFFFFFFFFFFFFFFFFFFFFFFFFFFFFFFFFFFFF AND DUP2 MSTORE PUSH1 0x20 ADD SWAP1 DUP2 MSTORE PUSH1 0x20 ADD PUSH1 0x0 KECCAK256 SLOAD SWAP1 POP SWAP2 SWAP1 POP JUMP JUMPDEST POP JUMP JUMPDEST PUSH1 0x0 DUP1 REVERT JUMPDEST PUSH1 0x0 PUSH20 0xFFFFFFFFFFFFFFFFFFFFFFFFFFFFFFFFFFFFFFFF DUP3 AND SWAP1 POP SWAP2 SWAP1 POP JUMP JUMPDEST PUSH1 0x0 PUSH2 0x61B DUP3 PUSH2 0x5F0 JUMP JUMPDEST SWAP1 POP SWAP2 SWAP1 POP JUMP JUMPDEST PUSH2 0x62B DUP2 PUSH2 0x610 JUMP JUMPDEST DUP2 EQ PUSH2 0x636 JUMPI PUSH1 0x0 DUP1 REVERT JUMPDEST POP JUMP JUMPDEST PUSH1 0x0 DUP2 CALLDATALOAD SWAP1 POP PUSH2 0x648 DUP2 PUSH2 0x622 JUMP JUMPDEST SWAP3 SWAP2 POP POP JUMP JUMPDEST PUSH1 0x0 PUSH1 0x20 DUP3 DUP5 SUB SLT ISZERO PUSH2 0x664 JUMPI PUSH2 0x663 PUSH2 0x5EB JUMP JUMPDEST JUMPDEST PUSH1 0x0 PUSH2 0x672 DUP5 DUP3 DUP6 ADD PUSH2 0x639 JUMP JUMPDEST SWAP2 POP POP SWAP3 SWAP2 POP POP JUMP JUMPDEST PUSH1 0x0 DUP2 SWAP1 POP SWAP2 SWAP1 POP JUMP JUMPDEST PUSH2 0x68E DUP2 PUSH2 0x67B JUMP JUMPDEST DUP3 MSTORE POP POP JUMP JUMPDEST PUSH1 0x0 PUSH1 0x20 DUP3 ADD SWAP1 POP PUSH2 0x6A9 PUSH1 0x0 DUP4 ADD DUP5 PUSH2 0x685 JUMP JUMPDEST SWAP3 SWAP2 POP POP JUMP JUMPDEST PUSH2 0x6B8 DUP2 PUSH2 0x67B JUMP JUMPDEST DUP2 EQ PUSH2 0x6C3 JUMPI PUSH1 0x0 DUP1 REVERT JUMPDEST POP JUMP JUMPDEST PUSH1 0x0 DUP2 CALLDATALOAD SWAP1 POP PUSH2 0x6D5 DUP2 PUSH2 0x6AF JUMP JUMPDEST SWAP3 SWAP2 POP POP JUMP JUMPDEST PUSH1 0x0 PUSH1 0x20 DUP3 DUP5 SUB SLT ISZERO PUSH2 0x6F1 JUMPI PUSH2 0x6F0 PUSH2 0x5EB JUMP JUMPDEST JUMPDEST PUSH1 0x0 PUSH2 0x6FF DUP5 DUP3 DUP6 ADD PUSH2 0x6C6 JUMP JUMPDEST SWAP2 POP POP SWAP3 SWAP2 POP POP JUMP JUMPDEST PUSH32 0x4E487B7100000000000000000000000000000000000000000000000000000000 PUSH1 0x0 MSTORE PUSH1 0x11 PUSH1 0x4 MSTORE PUSH1 0x24 PUSH1 0x0 REVERT JUMPDEST PUSH1 0x0 PUSH2 0x742 DUP3 PUSH2 0x67B JUMP JUMPDEST SWAP2 POP PUSH2 0x74D DUP4 PUSH2 0x67B JUMP JUMPDEST SWAP3 POP DUP3 DUP3 SUB SWAP1 POP DUP2 DUP2 GT ISZERO PUSH2 0x765 JUMPI PUSH2 0x764 PUSH2 0x708 JUMP JUMPDEST JUMPDEST SWAP3 SWAP2 POP POP JUMP JUMPDEST PUSH1 0x0 DUP2 SWAP1 POP SWAP3 SWAP2 POP POP JUMP JUMPDEST POP JUMP JUMPDEST PUSH1 0x0 PUSH2 0x786 PUSH1 0x0 DUP4 PUSH2 0x76B JUMP JUMPDEST SWAP2 POP PUSH2 0x791 DUP3 PUSH2 0x776 JUMP JUMPDEST PUSH1 0x0 DUP3 ADD SWAP1 POP SWAP2 SWAP1 POP JUMP JUMPDEST PUSH1 0x0 PUSH2 0x7A7 DUP3 PUSH2 0x779 JUMP JUMPDEST SWAP2 POP DUP2 SWAP1 POP SWAP2 SWAP1 POP JUMP JUMPDEST PUSH1 0x0 DUP3 DUP3 MSTORE PUSH1 0x20 DUP3 ADD SWAP1 POP SWAP3 SWAP2 POP POP JUMP JUMPDEST PUSH32 0x747261696E73666572206661696C656400000000000000000000000000000000 PUSH1 0x0 DUP3 ADD MSTORE POP JUMP JUMPDEST PUSH1 0x0 PUSH2 0x7F8 PUSH1 0x10 DUP4 PUSH2 0x7B1 JUMP JUMPDEST SWAP2 POP PUSH2 0x803 DUP3 PUSH2 0x7C2 JUMP JUMPDEST PUSH1 0x20 DUP3 ADD SWAP1 POP SWAP2 SWAP1 POP JUMP JUMPDEST PUSH1 0x0 PUSH1 0x20 DUP3 ADD SWAP1 POP DUP2 DUP2 SUB PUSH1 0x0 DUP4 ADD MSTORE PUSH2 0x827 DUP2 PUSH2 0x7EB JUMP JUMPDEST SWAP1 POP SWAP2 SWAP1 POP JUMP JUMPDEST PUSH2 0x837 DUP2 PUSH2 0x610 JUMP JUMPDEST DUP3 MSTORE POP POP JUMP JUMPDEST PUSH1 0x0 PUSH1 0x60 DUP3 ADD SWAP1 POP PUSH2 0x852 PUSH1 0x0 DUP4 ADD DUP7 PUSH2 0x82E JUMP JUMPDEST PUSH2 0x85F PUSH1 0x20 DUP4 ADD DUP6 PUSH2 0x685 JUMP JUMPDEST PUSH2 0x86C PUSH1 0x40 DUP4 ADD DUP5 PUSH2 0x685 JUMP JUMPDEST SWAP5 SWAP4 POP POP POP POP JUMP JUMPDEST PUSH1 0x0 PUSH2 0x87F DUP3 PUSH2 0x67B JUMP JUMPDEST SWAP2 POP PUSH32 0xFFFFFFFFFFFFFFFFFFFFFFFFFFFFFFFFFFFFFFFFFFFFFFFFFFFFFFFFFFFFFFFF DUP3 SUB PUSH2 0x8B1 JUMPI PUSH2 0x8B0 PUSH2 0x708 JUMP JUMPDEST JUMPDEST PUSH1 0x1 DUP3 ADD SWAP1 POP SWAP2 SWAP1 POP JUMP JUMPDEST PUSH1 0x0 PUSH2 0x8C7 DUP3 PUSH2 0x67B JUMP JUMPDEST SWAP2 POP PUSH2 0x8D2 DUP4 PUSH2 0x67B JUMP JUMPDEST SWAP3 POP DUP3 DUP3 ADD SWAP1 POP DUP1 DUP3 GT ISZERO PUSH2 0x8EA JUMPI PUSH2 0x8E9 PUSH2 0x708 JUMP JUMPDEST JUMPDEST SWAP3 SWAP2 POP POP JUMP INVALID LOG2 PUSH5 0x6970667358 0x22 SLT KECCAK256 CHAINID 0x2A SLOAD SWAP15 0xB7 AND DUP4 PREVRANDAO LT DUP4 XOR 0xB1 0xEA 0xC0 PUSH5 0x6BA44FC953 0x22 0x29 CODECOPY SWAP14 SAR SWAP1 0xD4 0x25 LT 0xB1 0xBB 0xEE PUSH5 0x736F6C6343 STOP ADDMOD XOR STOP CALLER "},"methodIdentifiers":{"deposit()":"d0e30db0","getCounter()":"8ada066e","getCurrentUSerBalance(address)":"f45606f3","userBalance(address)":"0103c92b","withdraw(uint256)":"2e1a7d4d"}}}}}