{
  "_format": "hh-sol-artifact-1",
  "contractName": "Bank",
  "sourceName": "contracts/Bank.sol",
  "abi": [
    {
      "anonymous": false,
      "inputs": [
        {
          "indexed": true,
          "internalType": "address",
          "name": "from",
          "type": "address"
        },
        {
          "indexed": true,
          "internalType": "uint256",
          "name": "amountSent",
          "type": "uint256"
        }
      ],
      "name": "Deposit",
      "type": "event"
    },
    {
      "anonymous": false,
      "inputs": [
        {
          "indexed": false,
          "internalType": "address",
          "name": "from",
          "type": "address"
        },
        {
          "indexed": false,
          "internalType": "uint256",
          "name": "withrawnAmount",
          "type": "uint256"
        },
        {
          "indexed": false,
          "internalType": "uint256",
          "name": "amountLeft",
          "type": "uint256"
        }
      ],
      "name": "Withdraw",
      "type": "event"
    },
    {
      "inputs": [],
      "name": "deposit",
      "outputs": [],
      "stateMutability": "payable",
      "type": "function"
    },
    {
      "inputs": [],
      "name": "getCounter",
      "outputs": [
        {
          "internalType": "uint256",
          "name": "",
          "type": "uint256"
        }
      ],
      "stateMutability": "view",
      "type": "function"
    },
    {
      "inputs": [
        {
          "internalType": "address",
          "name": "_user",
          "type": "address"
        }
      ],
      "name": "getCurrentUSerBalance",
      "outputs": [
        {
          "internalType": "uint256",
          "name": "",
          "type": "uint256"
        }
      ],
      "stateMutability": "view",
      "type": "function"
    },
    {
      "inputs": [
        {
          "internalType": "address",
          "name": "user",
          "type": "address"
        }
      ],
      "name": "userBalance",
      "outputs": [
        {
          "internalType": "uint256",
          "name": "balance",
          "type": "uint256"
        }
      ],
      "stateMutability": "view",
      "type": "function"
    },
    {
      "inputs": [
        {
          "internalType": "uint256",
          "name": "amount",
          "type": "uint256"
        }
      ],
      "name": "withdraw",
      "outputs": [],
      "stateMutability": "payable",
      "type": "function"
    }
  ],
  "bytecode": "0x608060405234801561001057600080fd5b50610926806100206000396000f3fe60806040526004361061004a5760003560e01c80630103c92b1461004f5780632e1a7d4d1461008c5780638ada066e146100a8578063d0e30db0146100d3578063f45606f3146100dd575b600080fd5b34801561005b57600080fd5b506100766004803603810190610071919061064e565b61011a565b6040516100839190610694565b60405180910390f35b6100a660048036038101906100a191906106db565b610132565b005b3480156100b457600080fd5b506100bd61033b565b6040516100ca9190610694565b60405180910390f35b6100db610381565b005b3480156100e957600080fd5b5061010460048036038101906100ff919061064e565b610563565b6040516101119190610694565b60405180910390f35b60016020528060005260406000206000915090505481565b610146673b5805fc8549865060c01b6105e8565b61015a675db3a67b8621d7fa60c01b6105e8565b80600160003373ffffffffffffffffffffffffffffffffffffffff1673ffffffffffffffffffffffffffffffffffffffff16815260200190815260200160002060008282546101a99190610737565b925050819055506101c467abe8220419a7e14d60c01b6105e8565b6101d86751ba68c1e285cfef60c01b6105e8565b60003373ffffffffffffffffffffffffffffffffffffffff16826040516101fe9061079c565b60006040518083038185875af1925050503d806000811461023b576040519150601f19603f3d011682016040523d82523d6000602084013e610240565b606091505b5050905061025867b711628cbd4cb1a560c01b6105e8565b61026c67bd3521e72ce0f16d60c01b6105e8565b61028067dd762a621703f8ec60c01b6105e8565b806102c0576040517f08c379a00000000000000000000000000000000000000000000000000000000081526004016102b79061080e565b60405180910390fd5b6102d46799bf16e305609cd460c01b6105e8565b6102e86779fb832d8a8ad2b760c01b6105e8565b6102fc678c01635ff888ee0660c01b6105e8565b7ff279e6a1f5e320cca91135676d9cb6e44ca8a08c0b88342bcdb1144f6511b56833834760405161032f9392919061083d565b60405180910390a15050565b600061035167c65891a4a79f364460c01b6105e8565b61036567eb38d087bf0ffd1260c01b6105e8565b61037967f0b928133516844d60c01b6105e8565b600054905090565b6103956740b8d6cc7352691360c01b6105e8565b6103a96760bbf08d843e5cab60c01b6105e8565b6103bd67f431160e36759ee560c01b6105e8565b6000600160003373ffffffffffffffffffffffffffffffffffffffff1673ffffffffffffffffffffffffffffffffffffffff168152602001908152602001600020549050610415673c2adbe46f3a1e4660c01b6105e8565b6104296740cc84e7a162101160c01b6105e8565b60008103610475576104456753a368584cf9152160c01b6105e8565b61045967403a95c503b36c2e60c01b6105e8565b60008081548092919061046b90610874565b919050555061048a565b6104896771e6082955efd27e60c01b6105e8565b5b61049e67e77b4bf62872024a60c01b6105e8565b34600160003373ffffffffffffffffffffffffffffffffffffffff1673ffffffffffffffffffffffffffffffffffffffff16815260200190815260200160002060008282546104ed91906108bc565b9250508190555061050867d2fd9d3959a741bc60c01b6105e8565b61051c6758c3ae8c9f7a6d3a60c01b6105e8565b343373ffffffffffffffffffffffffffffffffffffffff167fe1fffcc4923d04b559f4d29a8bfc6cda04eb5b0d3c460751c2402c5c5cc9109c60405160405180910390a350565b6000610579678bce2bfe4bf8141060c01b6105e8565b61058d67e587dd603f0875a660c01b6105e8565b6105a16720b5fe14f06667e760c01b6105e8565b600160008373ffffffffffffffffffffffffffffffffffffffff1673ffffffffffffffffffffffffffffffffffffffff168152602001908152602001600020549050919050565b50565b600080fd5b600073ffffffffffffffffffffffffffffffffffffffff82169050919050565b600061061b826105f0565b9050919050565b61062b81610610565b811461063657600080fd5b50565b60008135905061064881610622565b92915050565b600060208284031215610664576106636105eb565b5b600061067284828501610639565b91505092915050565b6000819050919050565b61068e8161067b565b82525050565b60006020820190506106a96000830184610685565b92915050565b6106b88161067b565b81146106c357600080fd5b50565b6000813590506106d5816106af565b92915050565b6000602082840312156106f1576106f06105eb565b5b60006106ff848285016106c6565b91505092915050565b7f4e487b7100000000000000000000000000000000000000000000000000000000600052601160045260246000fd5b60006107428261067b565b915061074d8361067b565b925082820390508181111561076557610764610708565b5b92915050565b600081905092915050565b50565b600061078660008361076b565b915061079182610776565b600082019050919050565b60006107a782610779565b9150819050919050565b600082825260208201905092915050565b7f747261696e73666572206661696c656400000000000000000000000000000000600082015250565b60006107f86010836107b1565b9150610803826107c2565b602082019050919050565b60006020820190508181036000830152610827816107eb565b9050919050565b61083781610610565b82525050565b6000606082019050610852600083018661082e565b61085f6020830185610685565b61086c6040830184610685565b949350505050565b600061087f8261067b565b91507fffffffffffffffffffffffffffffffffffffffffffffffffffffffffffffffff82036108b1576108b0610708565b5b600182019050919050565b60006108c78261067b565b91506108d28361067b565b92508282019050808211156108ea576108e9610708565b5b9291505056fea2646970667358221220462a549eb7168344108318b1eac0646ba44fc9532229399d1d90d42510b1bbee64736f6c63430008180033",
  "linkReferences": {},
  "deployedLinkReferences": {}
}